{
  "contractName": "Lottery",
  "abi": [
    {
      "constant": true,
      "inputs": [],
      "name": "organiser",
      "outputs": [
        {
          "internalType": "address",
          "name": "",
          "type": "address"
        }
      ],
      "payable": false,
      "stateMutability": "view",
      "type": "function"
    },
    {
      "constant": true,
      "inputs": [
        {
          "internalType": "uint256",
          "name": "",
          "type": "uint256"
        }
      ],
      "name": "players",
      "outputs": [
        {
          "internalType": "address payable",
          "name": "",
          "type": "address"
        }
      ],
      "payable": false,
      "stateMutability": "view",
      "type": "function"
    },
    {
      "constant": false,
      "inputs": [],
      "name": "lottery",
      "outputs": [],
      "payable": true,
      "stateMutability": "payable",
      "type": "function"
    },
    {
      "constant": false,
      "inputs": [],
      "name": "enter",
      "outputs": [],
      "payable": true,
      "stateMutability": "payable",
      "type": "function"
    },
    {
      "constant": true,
      "inputs": [],
      "name": "getPlayers",
      "outputs": [
        {
          "internalType": "address payable[]",
          "name": "",
          "type": "address[]"
        }
      ],
      "payable": false,
      "stateMutability": "view",
      "type": "function"
    },
    {
      "constant": true,
      "inputs": [],
      "name": "getOrganiser",
      "outputs": [
        {
          "internalType": "address",
          "name": "",
          "type": "address"
        }
      ],
      "payable": false,
      "stateMutability": "view",
      "type": "function"
    },
    {
      "constant": true,
      "inputs": [],
      "name": "randomize",
      "outputs": [
        {
          "internalType": "uint256",
          "name": "",
          "type": "uint256"
        }
      ],
      "payable": false,
      "stateMutability": "view",
      "type": "function"
    },
    {
      "constant": false,
      "inputs": [],
      "name": "pickWinner",
      "outputs": [],
      "payable": true,
      "stateMutability": "payable",
      "type": "function"
    }
  ],
  "bytecode": "0x608060405234801561001057600080fd5b50610717806100206000396000f3fe60806040526004361061007b5760003560e01c80638b5b9ccc1161004e5780638b5b9ccc14610163578063ba13a572146101cf578063e97dcb62146101d9578063f71d96cb146101e35761007b565b80630b705578146100805780635d495aea146100d7578063699b328a146100e15780637e5374861461010c575b600080fd5b34801561008c57600080fd5b5061009561025e565b604051808273ffffffffffffffffffffffffffffffffffffffff1673ffffffffffffffffffffffffffffffffffffffff16815260200191505060405180910390f35b6100df610287565b005b3480156100ed57600080fd5b506100f66103c2565b6040518082815260200191505060405180910390f35b34801561011857600080fd5b50610121610469565b604051808273ffffffffffffffffffffffffffffffffffffffff1673ffffffffffffffffffffffffffffffffffffffff16815260200191505060405180910390f35b34801561016f57600080fd5b5061017861048e565b6040518080602001828103825283818151815260200191508051906020019060200280838360005b838110156101bb5780820151818401526020810190506101a0565b505050509050019250505060405180910390f35b6101d761051c565b005b6101e161055e565b005b3480156101ef57600080fd5b5061021c6004803603602081101561020657600080fd5b81019080803590602001909291905050506105d9565b604051808273ffffffffffffffffffffffffffffffffffffffff1673ffffffffffffffffffffffffffffffffffffffff16815260200191505060405180910390f35b60008060009054906101000a900473ffffffffffffffffffffffffffffffffffffffff16905090565b6000809054906101000a900473ffffffffffffffffffffffffffffffffffffffff1673ffffffffffffffffffffffffffffffffffffffff163373ffffffffffffffffffffffffffffffffffffffff16146102e057600080fd5b60006001805490506102f06103c2565b816102f757fe5b0690506001818154811061030757fe5b9060005260206000200160009054906101000a900473ffffffffffffffffffffffffffffffffffffffff1673ffffffffffffffffffffffffffffffffffffffff166108fc479081150290604051600060405180830381858888f19350505050158015610377573d6000803e3d6000fd5b5060006040519080825280602002602001820160405280156103a85781602001602082028038833980820191505090505b50600190805190602001906103be929190610615565b5050565b6000804442600160405160200180848152602001838152602001828054801561044057602002820191906000526020600020905b8160009054906101000a900473ffffffffffffffffffffffffffffffffffffffff1673ffffffffffffffffffffffffffffffffffffffff16815260200190600101908083116103f6575b505093505050506040516020818303038152906040528051906020012090508060001c91505090565b6000809054906101000a900473ffffffffffffffffffffffffffffffffffffffff1681565b6060600180548060200260200160405190810160405280929190818152602001828054801561051257602002820191906000526020600020905b8160009054906101000a900473ffffffffffffffffffffffffffffffffffffffff1673ffffffffffffffffffffffffffffffffffffffff16815260200190600101908083116104c8575b5050505050905090565b336000806101000a81548173ffffffffffffffffffffffffffffffffffffffff021916908373ffffffffffffffffffffffffffffffffffffffff160217905550565b662386f26fc10000341161057157600080fd5b60013390806001815401808255809150509060018203906000526020600020016000909192909190916101000a81548173ffffffffffffffffffffffffffffffffffffffff021916908373ffffffffffffffffffffffffffffffffffffffff16021790555050565b600181815481106105e657fe5b906000526020600020016000915054906101000a900473ffffffffffffffffffffffffffffffffffffffff1681565b82805482825590600052602060002090810192821561068e579160200282015b8281111561068d5782518260006101000a81548173ffffffffffffffffffffffffffffffffffffffff021916908373ffffffffffffffffffffffffffffffffffffffff16021790555091602001919060010190610635565b5b50905061069b919061069f565b5090565b6106df91905b808211156106db57600081816101000a81549073ffffffffffffffffffffffffffffffffffffffff0219169055506001016106a5565b5090565b9056fea265627a7a72315820ce9e5272202aa2b64530f0f848da9184f4272584c848523410f34f6104dccd8064736f6c63430005100032",
  "source": "pragma solidity ^0.5.0;\n\ncontract Lottery {\n    address public organiser;\n    address payable [] public players;\n\n    //assign lottery organiser to contract creator\n    function lottery() public payable {\n        organiser = msg.sender;\n    }\n\n    //add player's address to the lottery pool\n    function enter() public payable {\n        require(msg.value > 0.01 ether);\n\n        players.push(msg.sender);\n    }\n\n    //get list of players in the lottery\n    function getPlayers() public view returns (address payable [] memory) {\n        return players;\n    }\n\n    //get organiser's address in the lottery\n    function getOrganiser() public view returns (address) {\n        return organiser;\n    }\n\n    //Modifier to check that the organiser is the one calling the method to pick winner\n    modifier organiserOnly() {\n        require(msg.sender == organiser);\n        _;\n    }\n\n    //Method to generate pseudo random number which uses block timestamp\n    function randomize() public view returns(uint) {\n        //use keccak256 hash\n        //hash block difficulty + timestamp + player list\n        bytes32 hash = keccak256(abi.encodePacked(block.difficulty, now, players));\n\n        return uint(hash);\n    }\n\n    function pickWinner() public payable organiserOnly {\n        //get random winning index using modulo of number of players\n        uint winnerIndex = randomize() % players.length;\n\n        //transfer lottery pool or contract balance to winning address\n        players[winnerIndex].transfer(address(this).balance);\n\n        //zerolise player list\n        players = new address payable [](0);\n    }\n\n}",
  "sourcePath": "/Users/victorlee/lottery/contracts/Lottery.sol",
  "compiler": {
    "name": "solc",
    "version": "0.5.16+commit.9c3226ce.Emscripten.clang"
  },
  "schemaVersion": "3.3.3",
  "updatedAt": "2021-09-18T09:18:19.789Z",
  "networkType": "ethereum",
  "devdoc": {
    "methods": {}
  },
  "userdoc": {
    "methods": {}
  }
}